:020000040800F2
:1000000000000520A51E0008391F0008391F000840
:10001000391F0008391F0008000000000000000020
:100020000000000000000000391F0008391F000810
:1000300000000000391F0008391F00080000000000
:10004000391F0008391F0008391F0008391F000830
:10005000391F0008391F0008391F0008391F000820
:10006000391F0008391F0008391F0008391F000810
:10007000391F0008391F0008391F0008391F000800
:10008000391F0008391F0008391F0008391F0008F0
:10009000391F0008391F0008391F0008391F0008E0
:1000A000391F0008391F0008391F0008391F0008D0
:1000B000391F0008391F0008391F0008391F0008C0
:1000C000391F0008391F0008391F0008391F0008B0
:1000D000391F0008391F0008391F0008391F0008A0
:1000E000391F000800000000391F0008391F0008F0
:1000F000391F0008391F0008391F0008391F000880
:10010000391F0008391F0008391F0008391F00086F
:10011000391F0008391F0008391F0008391F00085F
:10012000391F0008391F0008391F0008391F00084F
:10013000391F0008391F0008391F0008391F00083F
:10014000391F0008391F000800000000391F00088F
:10015000391F0008391F0008B9120008391F0008AC
:10016000391F0008391F0008391F0008391F00080F
:10017000391F000800000000391F0008391F00085F
:10018000391F0008391F0008391F0008391F0008EF
:10019000391F000800000000391F0008391F00083F
:1001A000391F00080000000000000000391F00088F
:1001B0000000000000000000391F0008391F00087F
:1001C000391F0008391F0008391F0008391F0008AF
:0401D000391F0008CB
:1001D400044B05481B1A062B02D9044B03B11847DC
:1001E400704700BF7F0000207C000020000000005A
:1001F40005490648091A891001EBD171491002D04A
:10020400034B03B1184770477C0000207C0000209A
:100214000000000010B5064C237843B9FFF7D8FF5F
:10022400044B13B10448AFF300800123237010BDC5
:100234007C00002000000000D428000808B5084B0A
:100244001BB108480849AFF300800848036813B994
:10025400BDE80840CCE7064B002BF9D09847F7E7F8
:1002640000000000D4280008800000207C0000204A
:100274000000000080B584B000AF254B9B689B084C
:10028400DBB203F003037B727B7A002B02D1214B98
:10029400FB600BE07B7A012B02D11F4BFB6005E076
:1002A4007B7A022B02D100F095F8F860184B9B681A
:1002B4001B09DBB203F00F033B723B7A072B02D816
:1002C4000123FB7205E03B7A083B144A32F81330F1
:1002D400FB720F4B9B689B0ADBB203F007033B7274
:1002E4003B7A032B02D80123BB7204E03B7A043B24
:1002F4000B4AD35CBB72FB7AFA68B2FBF3F2BB7AAB
:10030400B2FBF3F37B607B6818461037BD4680BDB3
:10031400003802400024F40000127A00000000209B
:100324001400002080B584B000AF0023FB60244B90
:100334009B689B08DBB203F003037B727B7A002B80
:1003440002D1204BFB600BE07B7A012B02D11E4BC8
:10035400FB6005E07B7A022B02D100F03BF8F860E9
:10036400174B9B681B0903F00F037B607B68072B0B
:1003740002D80123FB7205E07B68083B134A32F87C
:100384001330FB720E4B9B685B0B03F007037B601F
:100394007B68032B02D80123BB7204E07B68043B17
:1003A4000B4AD35CBB72FB7AFA68B2FBF3F2BB7AFA
:1003B400B2FBF3F33B603B6818461037BD4680BD83
:1003C400003802400024F40000127A0000000020EB
:1003D4001400002080B400AF00231846BD465DF829
:1003E400047B704780B483B000AF78600B46FB7029
:1003F400FB78012B6DD17B68704A934206D1704A19
:100404006F4B5B6C43F010035364D2E07B686D4A1E
:10041400934206D16A4A6A4B1B6C43F4003313645B
:10042400C7E07B68684A934206D1654A644B1B6CFB
:1004340043F480231364BCE07B68644A934206D18E
:100444005F4A5F4B1B6C43F400231364B1E07B6889
:100454005F4A934206D15A4A594B1B6C43F48013AA
:100464001364A6E07B685B4A934206D1544A544B1A
:100474005B6C43F0200353649BE07B68564A9342D1
:1004840006D14F4A4E4B1B6C43F08043136490E0FB
:100494007B68524A934206D1494A494B1B6C43F04C
:1004A4000043136485E07B684D4A934206D1444A75
:1004B400434B5B6C43F0400353647AE07B68494AE6
:1004C400934276D13E4A3E4B5B6C43F080035364C7
:1004D4006FE0FB78002B6CD17B68384A934206D1DD
:1004E400374A374B5B6C23F01003536461E07B683D
:1004F400344A934206D1324A314B1B6C23F4003305
:10050400136456E07B68304A934206D12C4A2C4B44
:100514001B6C23F4802313644BE07B682B4A9342C7
:1005240006D1274A264B1B6C23F40023136440E0B6
:100534007B68274A934206D1214A214B1B6C23F442
:100544008013136435E07B68224A934206D11C4A27
:100554001B4B5B6C23F0200353642AE07B681E4A28
:10056400934206D1164A164B1B6C23F08043136446
:100574001FE07B68194A934206D1114A104B1B6C49
:1005840023F00043136414E07B68154A934206D1B8
:100594000B4A0B4B5B6C23F04003536409E07B680C
:1005A400104A934205D1064A054B5B6C23F0800345
:1005B40053640C37BD465DF8047B7047001001405E
:1005C400003802400044004000480040004C004015
:1005D400005000400014014000780040007C0040BE
:1005E40000180140001C014080B584B000AF786061
:1005F4007B681B6818460121FFF7F4FE0023FB60AB
:100604007B681B79012B04D1FB6843F00403FB6076
:1006140010E07B681B79002B04D1FB6843F00803CE
:10062400FB6007E07B681B79022B03D1FB6843F076
:100634000C03FB607B689B7B012B04D1FB6843F4B8
:100644008063FB600BE07B689B7B022B07D1FB681C
:1006540043F48063FB60FB6843F40073FB607B68D6
:100664005B7B1B031A46FB681343FB607B685B7967
:10067400DB031A46FB681343FB607B681B68FA685C
:10068400DA600023FB607B681B7BDB021A46FB6895
:100694001343FB607B681B68FA681A610023FB60E4
:1006A4007B68DB7B012B04D1FB6843F40073FB60A4
:1006B40010E07B68DB7B022B04D1FB6843F480737E
:1006C400FB6007E07B68DB7B032B03D1FB6843F40F
:1006D4004073FB607B681B68FA685A617B681A6820
:1006E4007B689B681046194600F06EFC1037BD46C7
:1006F40080BD00BF80B483B000AF78607B68564A89
:1007040093420CD1554A554B5B6A43F01003536234
:10071400524A524B5B6A23F01003536297E07B68A2
:100724004F4A93420CD14D4A4C4B1B6A43F400335D
:1007340013624A4A494B1B6A23F40033136286E06E
:100744007B68484A93420CD1444A444B1B6A43F4A5
:1007540080231362414A414B1B6A23F480231362B2
:1007640075E07B68404A93420CD13C4A3B4B1B6A80
:1007740043F400231362394A384B1B6A23F40023E1
:10078400136264E07B68394A93420CD1334A334B99
:100794001B6A43F480131362304A304B1B6A23F400
:1007A4008013136253E07B68314A93420CD12B4A85
:1007B4002A4B5B6A43F020035362284A274B5B6A47
:1007C40023F02003536242E07B682A4A93420CD10F
:1007D400224A224B1B6A43F0804313621F4A1F4B79
:1007E4001B6A23F08043136231E07B68224A934200
:1007F4000CD11A4A194B1B6A43F000431362174A7F
:10080400164B1B6A23F00043136220E07B681B4AEB
:1008140093420CD1114A114B5B6A43F0400353627B
:100824000E4A0E4B5B6A23F0400353620FE07B6871
:10083400134A93420BD1094A084B5B6A43F0800385
:100844005362064A054B5B6A23F0800353620C37FC
:10085400BD465DF8047B704700100140003802403B
:100864000044004000480040004C0040005000405C
:100874000014014000780040007C00400018014052
:10088400001C014080B586B000AFF860B9607A60A2
:1008940000237B612DE000BFFB681B68184607211D
:1008A40000F02CFC0346002BF6D0FB689B7B012B4D
:1008B40014D1BB683B61FB681B683A691288C2F3B8
:1008C40008025A60FB689B7B002B03D1BB68023390
:1008D400BB600BE0BB680133BB6007E0FB681B68CF
:1008E400BA6812785A60BB680133BB607B69013314
:1008F4007B617A697B689A42CDD300BFFB681B6831
:100904001846062100F0FAFB0346002BF6D01837F0
:10091400BD4680BD80B586B000AFF860B9607A602E
:1009240000237B6142E000BFFB681B681846052179
:1009340000F0E4FB0346002BF6D0FB685B7B012B45
:100944001AD1FB689B7B002B0CD1FB681B685B688E
:100954009BB2C3F308039AB2BB681A80BB68023324
:10096400BB6020E0FB681B685B68DAB2BB681A7086
:10097400BB680133BB6016E0FB689B7B002B06D190
:10098400FB681B685B68DAB2BB681A7008E0FB6836
:100994001B685B68DBB203F07F03DAB2BB681A70D2
:1009A400BB680133BB607B6901337B617A697B6817
:1009B4009A42B8D31837BD4680BD00BF80B487B013
:1009C40000AFF860B9607A60FB6893F82030FB757B
:1009D400FB7D022B19D0FB68BA681A61FB687A6840
:1009E4009A61FB68022283F82020FB681B68FA687E
:1009F4001268D26842F08002DA60FB681B68FA6809
:100A04001268D26842F04002DA60FB7D18461C3757
:100A1400BD465DF8047B704780B487B000AFF860D2
:100A2400B9607A60FB6893F82130FB75FB7D012B7C
:100A340011D0FB687A68DA61FB68BA685A61FB68AE
:100A4400012283F82120FB681B68FA681268D268C7
:100A540042F02002DA60FB7D18461C37BD465DF883
:100A6400047B704790B482B000AF03460A46FB7122
:100A74001346BB71BB79012B4CD1FB791F2B09D8D1
:100A84004D494D4B1B68FA79012000FA02F21343D9
:100A94000B608DE0FB791F2B0ED9FB793F2B0BD814
:100AA4004649464B1B68FA7902F01F02012000FAFE
:100AB40002F213430B602CE0FB793F2B0ED9FB7938
:100AC4005F2B0BD83E493E4B1B68FA7902F03F027C
:100AD400012000FA02F213430B601AE0FB795F2B4A
:100AE40066D9FB795BB2002B62DB364C354B186858
:100AF400FA79354BA3FB021399090B465B000B44AF
:100B04005B01D31ADBB21A460123934003432360EB
:100B14004EE04DE0BB79002B4AD1FB791F2B09D85D
:100B24002A492A4B1B68FA79012000FA02F213437E
:100B34000B603DE0FB791F2B0ED9FB793F2B0BD8C3
:100B44002349234B1B68FA7902F01F02012000FAA3
:100B540002F213430B602BE0FB793F2B0ED9FB7998
:100B64005F2B0BD81B491B4B1B68FA7902F03F0221
:100B7400012000FA02F213430B6019E0FB795F2BAA
:100B840016D9FB795BB2002B12DB134C124B18689D
:100B9400FA790D4BA3FB021399090B465B000B4436
:100BA4005B01D31ADBB21A4601239340034323604B
:100BB4000837BD4690BC704700E100E004E100E066
:100BC40008E100E00CE100E0ABAAAAAA80E100E0A1
:100BD40084E100E088E100E08CE100E080B485B0CD
:100BE40000AF03463960FB71FB799B08FB73FB790B
:100BF40003F00303BB73BB7BDB00DBB204337B7307
:100C0400FB7B9B0003F1604303F56443FA7B920092
:100C140002F1604202F5644211687A7B386800FA96
:100C240002F20A431A601437BD465DF8047B70472C
:100C340080B586B000AF78607B681B681B6803F0E2
:100C440040037B617B681B68DB6803F040033B6106
:100C54007B69002B29D03B69002B26D07B6893F855
:100C64002030022B21D17B689B69002B1DD17B682E
:100C74001B687A681268126822F040021A607B6866
:100C84001B687A681268D26822F04002DA607B68D6
:100C9400002283F820207B6800221A617B680022EE
:100CA4009A617868002100F00DFB7B681B681B6863
:100CB40003F080037B617B681B68DB6803F08003BF
:100CC4003B617B69002B4FD03B69002B4CD07B6888
:100CD40093F82030022B47D17B689B69002B37D0D7
:100CE4007B685B7B012B23D17B681B69FB607B6882
:100CF4001B68FA681288C2F308025A607B689B7BFF
:100D0400002B0AD17B681B699A1C7B681A617B687B
:100D14009B699A1E7B689A611AE07B681B695A1C5E
:100D24007B681A617B689B695A1E7B689A610FE035
:100D34007B681B687A68126912785A607B681B6941
:100D44005A1C7B681A617B689B695A1E7B689A618E
:100D54007B689B69002B07D17B681B687A681268E3
:100D6400D26822F08002DA607B681B681B6803F09B
:100D740020037B617B681B68DB6803F020033B6115
:100D84007B69002B6ED03B69002B6BD07B6893F89A
:100D94002130012B66D17B68DB69002B4ED07B6848
:100DA4005B7B012B2AD17B689B7B002B14D17B6856
:100DB4005B697A681268526892B2C2F3080292B20E
:100DC4001A807B685B699A1C7B685A617B68DB6963
:100DD4009A1E7B68DA6131E07B685B697A68126825
:100DE4005268D2B21A707B685B695A1C7B685A617C
:100DF4007B68DB695A1E7B68DA611FE07B689B7B3A
:100E0400002B07D17B685B697A6812685268D2B29A
:100E14001A7009E07B685B697A6812685268D2B21A
:100E240002F07F02D2B21A707B685B695A1C7B683D
:100E34005A617B68DB695A1E7B68DA617B68DB690F
:100E4400002B0FD17B681B687A681268D26822F085
:100E54002002DA607B68002283F82120786801216F
:100E640000F030FA7B681B681B6803F400737B6135
:100E74007B681B685B6903F400733B617B681B68D8
:100E84005B6903F48063BB607B69002B11D03B6911
:100E9400002B0ED0BB68002B0BD07B681B687A68D4
:100EA4001268126822F400721A607868032100F054
:100EB40009FA7B681B681B6803F010037B617B687D
:100EC4001B68DB6803F010033B617B69002B0FD0C8
:100ED4003B69002B0CD07B681A687B681B681B6815
:100EE40023F0100313607B617868022100F0EAF9B3
:100EF4007B681B681B6803F003037B617B681B68CA
:100F0400DB6803F005033B617B69002B0FD03B6971
:100F1400002B0CD07B681A687B681B681B6823F065
:100F2400080313607B617868072100F0CBF97B68C4
:100F34001B681B6800237B617B681B68DB6803F00C
:100F440008033B617B69002B0FD03B69002B0CD05D
:100F54007B681A687B681B681B6823F001031360B5
:100F64007B617868072100F0ADF97B681B685B69D9
:100F740003F001033B613B69002B22D07868082110
:100F840000F0A0F97B681B681B687B617B6903F038
:100F94000203002B03D07868052100F093F97B69E4
:100FA40003F00403002B03D07868062100F08AF9CB
:100FB4007B6903F00803002B03D07868072100F055
:100FC40081F91837BD4680BD80B588B000AF786020
:100FD400396000233B617B68344A93420BD07B68C1
:100FE400334A934207D07B68324A934203D07B68EA
:100FF400314A934203D1FFF795F9F86102E0FFF714
:1010040039F9F8617B68DB6803F40043002B0BD0EB
:10101400FA6913469B0013449A001A443B685B0028
:10102400B2FBF3F3BB610AE0FA6913469B00134475
:101034009A001A443B689B00B2FBF3F3BB61BB69A3
:101044001E4AA2FB03235B09FB60FB681B013A6990
:1010540013433B61FB68642202FB03F3BA69D31AAE
:101064007B617B68DB6803F40043002B0AD07B6957
:10107400DB003233114AA2FB03235B0903F00703AD
:101084007B6109E07B691B0132330C4AA2FB032319
:101094005B0903F00F037B613A697B6913433B618E
:1010A4007B683A699A602037BD4680BD00100140D4
:1010B4000014014000180140001C01401F85EB5141
:1010C40080B483B000AF78600B46FB70FB78012BD3
:1010D40006D17B68DB6843F400527B68DA6008E081
:1010E400FB78002B05D17B68DB6823F400527B6816
:1010F400DA600C37BD465DF8047B704780B485B078
:1011040000AF786039603B68012202FA03F3FB7395
:101114007B681B683A68012101FA02F21340002B34
:1011240002D00123FB7301E00023FB73FB7B184611
:101134001437BD465DF8047B704700BF80B483B0AC
:1011440000AF786039607B681B683A68012101FA56
:1011540002F2D2431A407B681A600C37BD465DF830
:10116400047B704780B584B000AF3B1D1846002156
:101174000C2200F00DFF0D4B7B6002237B720823D1
:101184007B7300233B730123FB720323BB720E2387
:101194003B723B1D184600F087F909233B723B1D47
:1011A400184600F081F91037BD4680BD0018024092
:1011B40080B500AF17480021242200F0E9FE154B4A
:1011C400154A1A60134B4FF416529A60114B0222BF
:1011D4001A71104B01225A710E4B00221A730D4BD7
:1011E40000229A730B4B00225A730A4B0022DA73C3
:1011F4000848FFF7F9F947200121FFF733FC47209E
:101204000121FFF7EBFCFFF7ADFF03480121FFF7D6
:1012140057FF80BDA80000200014014080B582B0B3
:1012240000AF0346FB7100BFFB1D054819460122B0
:10123400FFF7C4FB0346002BF6D10837BD4680BD3B
:10124400A800002080B500AF00BF0A480A49012267
:10125400FFF7E2FB0346002BF7D100BF074B1B78D7
:10126400DBB2012BFAD1054B00221A70024B1B781A
:10127400184680BDA8000020990000209800002096
:1012840080B582B000AF786008480021FFF718FFEE
:10129400074A7B6893600648FFF7A6F903480121D3
:1012A400FFF70EFF0837BD4680BD00BF00140140A4
:1012B400A800002080B500AF0148FFF7B9FC80BD4D
:1012C400A800002080B582B000AF78600B46FB70A8
:1012D400FB78012B03D1094B01221A700BE0FB7838
:1012E400002B08D0FB78022B05D0FB78082B02D109
:1012F400034800F0CDFE0837BD4680BD98000020AD
:10130400EC28000880B483B000AF78600B46FB7013
:10131400FB78012B57D17B685A4A934206D15A4A2B
:10132400594B1B6B43F001031363A6E07B68574AD8
:10133400934206D1544A544B1B6B43F0020313638C
:101344009BE07B68524A934206D14F4A4E4B1B6B3B
:1013540043F00403136390E07B684E4A934206D142
:10136400494A494B1B6B43F00803136385E07B68D0
:10137400494A934206D1444A434B1B6B43F0100342
:1013840013637AE07B68454A934206D13E4A3E4B5A
:101394001B6B43F0200313636FE07B68404A934266
:1013A40006D1394A384B1B6B43F04003136364E0A6
:1013B4007B683C4A934260D1334A334B1B6B43F006
:1013C4008003136359E0FB78002B56D17B682D4AC8
:1013D400934206D12C4A2C4B1B6B23F0010313635D
:1013E4004BE07B68294A934206D1274A264B1B6B64
:1013F40023F00203136340E07B68254A934206D13D
:10140400214A214B1B6B23F00403136335E07B68F3
:10141400204A934206D11C4A1B4B1B6B23F0080342
:1014240013632AE07B681C4A934206D1164A164B82
:101434001B6B23F0100313631FE07B68174A93426E
:1014440006D1114A104B1B6B23F02003136314E0E5
:101454007B68134A934206D10B4A0B4B1B6B23F058
:101464004003136309E07B680E4A934205D1064AA0
:10147400054B1B6B23F0800313630C37BD465DF8EB
:10148400047B704700000240003802400004024020
:1014940000080240000C0240001002400014024008
:1014A40000180240001C024090B587B000AF78607D
:1014B4007B681B6818460121FFF724FF00237B612A
:1014C4007B685B79032B1FD87B685B791A467B6842
:1014D4001B795B0002FA03F37B617B681B687A6803
:1014E40012681268796809794900032000FA01F149
:1014F400C9430A401A607B681B687A6812681168DD
:101504007A690A431A60C9E07B681B687A681268C2
:101514001268796809794900032000FA01F1C94386
:101524000A401A607B685B79042B15D14449444B0B
:10153400DB687A6812791046012282401343CB603B
:101544003F493F4B9B687A681279104601228240DA
:10155400D24313408B6031E07B685B79052B15D156
:101564003749374B9B687A681279104601228240CA
:1015740013438B603249324BDB687A681279104628
:1015840001228240D2431340CB6017E07B685B7931
:10159400062B13D12A492A4BDB687A681279104644
:1015A400012282401343CB602549254B9B687A680E
:1015B400127910460122824013438B607B681B79A9
:1015C4009B08DBB23B617B681B7903F00303FB6080
:1015D4007B681B681B4A934244D07B681B681A4A89
:1015E40093422BD07B681B68184A934224D07B68B3
:1015F4001B68174A93421DD07B681B68154A9342A7
:1016040016D07B681B68144A93420FD07B681B6812
:10161400124A934208D07B681B68114A934201D155
:10162400072320E000231EE006231CE005231AE024
:10163400042318E0032316E0022314E0012312E03C
:10164400003C014000000240000402400008024047
:10165400000C024000100240001402400018024036
:10166400001C02400023FB72594A594B5B6C43F443
:10167400804353645749FB7AFA68920093401A46B0
:101684003B69023341F823205349534B1B687A6862
:10169400127910460122824013430B6000237B61C0
:1016A4007B689B791A467B681B795B0002FA03F31B
:1016B4007B617B681B687A6812689268796809792B
:1016C4004900032000FA01F1C9430A409A607B688B
:1016D4001B687A68126891687A690A439A600023E1
:1016E4007B617B68DB791A467B681B795B0002FAB5
:1016F40003F37B617B681B687A681268D268796837
:1017040009794900032000FA01F1C9430A40DA606B
:101714007B681B687A681268D1687A690A43DA6060
:1017240000237B617B681B7A1A467B681B7902FA6B
:1017340003F37B617B681B687A6812685268796876
:101744000979084601218140C9430A405A607B68EF
:101754001B687A68126851687A690A435A600023E0
:101764007B617B685B79022B2FD17B681B79DB085B
:10177400BB727B681B7903F007037B727B681B6871
:10178400BA7A79680968B87A083051F82010787AFA
:1017940080000F2404FA00F0C0430140083243F8EB
:1017A40022107B681B68BA7A79680968B87A0830AD
:1017B40051F820107868407A0446787A800004FA58
:1017C40000F00143083243F822101C37BD4690BD97
:1017D4000038024000380140003C014080B483B02E
:1017E40000AF78607B68454A93420CD1444A444B2D
:1017F4001B6943F001031361414A414B1B6923F008
:101804000103136175E07B683E4A93420CD13C4A64
:101814003B4B1B6943F002031361394A384B1B6984
:1018240023F00203136164E07B68374A93420CD1CE
:10183400334A334B1B6943F004031361304A304B82
:101844001B6923F00403136153E07B682F4A93421E
:101854000CD12B4A2A4B1B6943F008031361284A15
:10186400274B1B6923F00803136142E07B68284A75
:1018740093420CD1224A224B1B6943F0100313619B
:101884001F4A1F4B1B6923F01003136131E07B686F
:10189400204A93420CD11A4A194B1B6943F0200386
:1018A4001361174A164B1B6923F02003136120E0D0
:1018B4007B68194A93420CD1114A114B1B6943F0BE
:1018C400400313610E4A0E4B1B6923F0400313615E
:1018D4000FE07B68114A93420BD1094A084B1B69FC
:1018E40043F080031361064A054B1B6923F0800310
:1018F40013610C37BD465DF8047B7047000002405D
:10190400003802400004024000080240000C02407B
:10191400001002400014024000180240001C024063
:1019240080B485B000AF78600B46FB700023FB7376
:101934007B681A69FB7822FA03F3DBB203F0010334
:10194400FB73FB7B18461437BD465DF8047B704778
:1019540080B485B000AF78600023FB817B681B698D
:10196400FB81FB8918461437BD465DF8047B70473C
:1019740080B483B000AF78600B46FB701346BB7035
:10198400BB78012B09D17B685B69FA78012101FAE4
:1019940002F21A437B685A610CE0BB78002B09D130
:1019A4007B685B69FA78012101FA02F2D2431A409A
:1019B4007B685A610C37BD465DF8047B704700BFF5
:1019C40080B483B000AF78600B467B807A887B68F4
:1019D4005A610C37BD465DF8047B704780B483B010
:1019E40000AF78600B46FB707B685B69FA78012175
:1019F40001FA02F25A407B685A610C37BD465DF821
:101A0400047B704780B483B000AF78607B685B6907
:101A1400DA437B685A610C37BD465DF8047B704736
:101A240090B482B000AF03460A46FB711346BB7103
:101A3400BB79012B4CD1FB791F2B09D84D494D4B58
:101A44001B68FA79012000FA02F213430B608DE05F
:101A5400FB791F2B0ED9FB793F2B0BD84649464BFC
:101A64001B68FA7902F01F02012000FA02F2134304
:101A74000B602CE0FB793F2B0ED9FB795F2B0BD845
:101A84003E493E4B1B68FA7902F03F02012000FAFE
:101A940002F213430B601AE0FB795F2B66D9FB79E2
:101AA4005BB2002B62DB364C354B1868FA79354B48
:101AB400A3FB021399090B465B000B445B01D31A89
:101AC400DBB21A4601239340034323604EE04DE00A
:101AD400BB79002B4AD1FB791F2B09D82A492A4B01
:101AE4001B68FA79012000FA02F213430B603DE00F
:101AF400FB791F2B0ED9FB793F2B0BD82349234BA2
:101B04001B68FA7902F01F02012000FA02F2134363
:101B14000B602BE0FB793F2B0ED9FB795F2B0BD8A5
:101B24001B491B4B1B68FA7902F03F02012000FAA3
:101B340002F213430B6019E0FB795F2B16D9FB7992
:101B44005BB2002B12DB134C124B1868FA790D4B65
:101B5400A3FB021399090B465B000B445B01D31AE8
:101B6400DBB21A4601239340034323600837BD4682
:101B740090BC704700E100E004E100E008E100E00F
:101B84000CE100E0ABAAAAAA80E100E084E100E055
:101B940088E100E08CE100E080B485B000AF03464A
:101BA4003960FB71FB799B08FB73FB7903F003033A
:101BB400BB73BB7BDB00DBB204337B73FB7B9B001F
:101BC40003F1604303F56443FA7B920002F160423F
:101BD40002F5644211687A7B386800FA02F20A431B
:101BE4001A601437BD465DF8047B704780B483B037
:101BF40000AF0346FB710B4B5B69FA79012101FAD3
:101C040002F21340002B08D00649064B5B69FA79AF
:101C1400012000FA02F213434B610C37BD465DF814
:101C2400047B7047003C014080B58CB000AF07F1E5
:101C34002403184600210C2200F0AAF907F1180326
:101C4400184600210C2200F0A3F907F10C031846F2
:101C540000210C2200F09CF93B46184600210C227E
:101C640000F096F9174B7B62002387F82830012394
:101C740087F82930022387F82A30012387F82C308B
:101C8400012387F82B3007F124031846FFF70CFCD7
:101C940007233B7707F118031846FFF705FC0E23CB
:101CA4003B7407F10C031846FFF7FEFB064B3B6041
:101CB40005233B713B461846FFF7F6FB3037BD461C
:101CC40080BD00BF000402400000024080B584B023
:101CD40000AF3B1D184600210C2200F059F90C4BB3
:101CE4007B600D233B7204237B720023BB720223AF
:101CF400FB723B1D1846FFF7D7FB28200F21FFF787
:101D04004BFF28200121FFF78BFE1037BD4680BD15
:101D14000008024080B485B000AF78600023FB6007
:101D240002E0FB680133FB607B6840F6C41202FBEF
:101D340003F2FB689A42F4D81437BD465DF8047B7D
:101D4400704700BF80B582B000AF0346FB711E48E8
:101D54000D21FFF7E5FD0346002B14D0FB79022B80
:101D640001D10123FB71FB79002B27D16420FFF7FC
:101D7400D1FF15480D21FFF7D3FD0346012B1DD1DB
:101D84000223FB711AE0FB79032B01D10023FB71C1
:101D9400FB79012B12D10C480D21FFF7C1FD03463D
:101DA400002B0BD16420FFF7B5FF07480D21FFF787
:101DB400B7FD0346002B01D10323FB71FB791846C1
:101DC4000837BD4680BD00BF0008024080B582B020
:101DD40000AF03460A46FB711346BB71FA79BB791F
:101DE400064811461A46FFF7C3FDBB79044807218C
:101DF4001A46FFF7BDFD0837BD4680BD000002400E
:101E04000004024080B58AB000AF24480121FFF7E6
:101E140079FA224BFB61002387F82030012387F8ED
:101E24002130022387F82230012387F8243001234C
:101E340087F8233007F11C031846FFF735FB174BCF
:101E44003B6107233B7501237B7500233B7607F138
:101E540010031846FFF728FB104B7B600E233B72E0
:101E640001237B7200233B733B1D1846FFF71CFBC9
:101E74000A480021FFF7B2FD0A20FFF74BFF07488D
:101E84000721FFF7ABFD1420FFF744FF03480E21A1
:101E9400FFF7A4FD1E20FFF73DFFE9E70004024021
:101EA400684620F007018D4681B587B000AF1C4B12
:101EB4007B611C4B3B611C4A1A4BD31A7B60002389
:101EC400FB600AE03B691A1D3A617A69111D796168
:101ED40012681A60FB680133FB60FA687B689A42F7
:101EE400F0D3124A124BD31A7B60114B3B6100238F
:101EF400BB6007E03B691A1D3A6100221A60BB68A7
:101F04000133BB60BA687B689A42F3D300F01AF8D5
:101F1400FFF778FF1C37BD46BDE881408546704712
:101F240068290008000000207C000020D000002068
:101F34007C000020684620F007018D4681B400AF84
:101F4400FEE700BF70B50E4B0E4CE41AA41000253A
:101F54001E46A54204D056F8253098470135F8E7C7
:101F640000F0B6FC084C094BE41AA41000251E46E8
:101F7400A54204D056F8253098470135F8E770BDDE
:101F84006029000860290008642900086029000805
:101F940002440346934202D003F8011BFAE7704758
:101FA40070B50E46054618B183690BB900F026FAE0
:101FB400AB69AC6813B9284600F020FA314B9C4257
:101FC40001D16C6808E0304B9C4201D1AC6803E05D
:101FD4002E4B9C4208BFEC68A389190701D52369DD
:101FE40083B92846214600F0AFF858B14FF0FF30CE
:101FF40070BD002B0EDB236816F8012C1A702368C1
:1020040001332360A36816F8012B013BA360002A67
:10201400EFD116E0A269934209DB236816F8012C7C
:102024001A70236819780A29EAD1284602E016F8BA
:10203400011C2846224600F033F8421C504250410D
:10204400D3E7002B15DAA269934208DB23680A223E
:102054001A702368197891420FD1284601E0284666
:102064000A21224600F01CF8431C5842584130B162
:10207400BCE723680A221A702368013323600A200C
:1020840070BD00BF0029000820290008402900086D
:10209400024B01461868FFF783BF00BF7800002099
:1020A40070B50D461446064618B183690BB900F0A5
:1020B400A5F9224B9C4201D1746808E0204B9C4254
:1020C40001D1B46803E01F4B9C4208BFF468A369C4
:1020D400A360A3891A0709D523693BB12368206942
:1020E400181A63699842EDB20FDB08E030462146C6
:1020F40000F02AF80028F1D04FF0FF3070BD3046D0
:10210400214600F011F90028F6D1A368013BA36031
:1021140023685A1C22601D7063690130984204D000
:10212400A389DB0707D50A2D05D13046214600F0E7
:10213400FBF80028E0D1284670BD00BF0029000844
:102144002029000840290008314B70B51D68064657
:102154000C4625B1AB6913B9284600F04FF92D4B55
:102164009C4201D16C6808E02B4B9C4201D1AC68C5
:1021740003E02A4B9C4208BFEC68A3899AB211077A
:102184001DD4D50602D40922326038E0500712D596
:10219400616B41B104F14403994202D0304600F02E
:1021A40003FA00236363A38923F02403A381002398
:1021B400636023692360A38943F00803A38123692F
:1021C4004BB9A38903F42073B3F5007F03D03046E1
:1021D400214600F09BF9A38913F0010205D00022E7
:1021E400A26062695242A26103E0990758BF626922
:1021F400A26022694AB903F0800080B230B143F092
:102204004003A3814FF0FF3070BD002070BD00BFBC
:10221400780000200029000820290008402900082F
:102224008A892DE9F041054610070C4657D44B68BE
:10223400002B02DC0B6C002B18DDE66AB6B102F44D
:102244008052002392B22F682B600AB1626D10E0B5
:10225400216A28460123B047411C024609D12B6854
:102264003BB11D2B01D0162B47D12F600020BDE8B8
:10227400F081A3895B0705D56368D21A636B0BB140
:10228400236CD21AE66A216A00232846B047461C0A
:10229400A38905D12A681AB11D2A01D0162A19D199
:1022A40000226260D9042269226004D5421C01D153
:1022B4002B6803B96065616B2F600029D6D004F1E7
:1022C4004403994202D0284600F06EF9002060636E
:1022D400BDE8F08143F04003A381BDE8F0810F69BC
:1022E400002FC3D093070E6808BF4B690F6018BF57
:1022F4000023C7EB06088B6012E0A38943F0400378
:10230400A3814FF0FF30BDE8F0812846216AA66A18
:102314003A464346B0470028EFDD0744C0EB0808BF
:10232400B8F1000FF1DCA1E738B50B6905460C469E
:10233400DBB118B183690BB900F060F80C4B9C4217
:1023440001D16C6808E00B4B9C4201D1AC6803E0FE
:10235400094B9C4208BFEC68B4F90C302BB12846F9
:102364002146BDE83840FFF75BBF002038BD00BF01
:10237400002900082029000840290008014900F02C
:10238400A7B800BF2D230008002310B5044603603E
:102394004360836081814366C281036143618361D9
:1023A40019465C300822FFF7F3FD054B6362054BC9
:1023B400A362054BE362054B2462236310BD00BF97
:1023C40001270008232700085B2700087F2700084F
:1023D40070B568234D1E5D430E4605F1740100F08F
:1023E40027F9044640B1002180E842000C30A06087
:1023F40005F16802FFF7CCFD204670BD836910B576
:10240400044633BB8364C3640365124B124A1B68DE
:102414008262984204BF0123836100F01FF8606068
:10242400204600F01BF8A060204600F017F80421B5
:10243400E06000226068FFF7A7FFA068092101227D
:10244400FFF7A2FFE06812210222FFF79DFF01239C
:10245400A36110BDFC28000881230008F8B51B4BBC
:102464001E68B369074613B93046FFF7C7FF4836FD
:10247400B4687368013B04D4B4F90C5075B1683482
:10248400F8E733682BB938460421FFF7A1FF306021
:1024940008B13668ECE70C233B60F8BD4FF6FF73D8
:1024A400E3810123A38165662560A56065602561DC
:1024B4006561A56104F15C0029460822FFF768FD07
:1024C4006563A563A564E5642046F8BDFC2800089F
:1024D4002DE9F8438046894600F14804002694B16A
:1024E400A5686768013F0CD4AB89012B07D9B5F9FE
:1024F4000E30013303D040462946C84706436835A9
:10250400F0E72468EBE73046BDE8F883F0B58B8943
:102514009D0791B006460C4626D4B1F90E10002949
:1025240009DAA38913F0800F4FF0000514BF402788
:102534004FF480670DE001AA00F046F90028F0DBB3
:10254400029D05F47045A5F500514D424D414FF4EF
:1025540080673046394600F06BF860B9A3899A0564
:102564001DD443F00203A38104F1470323602361D4
:102574000123636113E00B4BB362A389206043F032
:102584008003A381206167614DB13046B4F90E1018
:1025940000F02CF918B1A38943F00103A38111B011
:1025A400F0BD00BF8123000830B500293DD051F8AB
:1025B400042C0B1F1D49002AB8BF9B180A680C463F
:1025C40012B95A600B6030BD93420DD21968581885
:1025D400904201BF5A5852181A6042685A602360E8
:1025E40030BD994203D80A4651680029F9D11468CC
:1025F40015199D420AD11B682344D01888421360E0
:1026040013D10868034413604B680DE002D90C230E
:10261400036030BD1C681819884204BF0868496803
:10262400596004BF00191860536030BDA000002039
:1026340070B5CC1C24F0030408340C2C38BF0C24D3
:10264400002C064603DA0C233360002070BD8C4254
:10265400F9D3204A136810461946A1B10A68121B1F
:102664000ED40B2A03D90A608B188C501FE08B42BE
:102674000DBF5A684A685A60026018BF0B4616E0DC
:102684000B464968E9E7144D2B681BB9304600F046
:1026940025F828603046214600F020F8421C034605
:1026A400D1D0C51C25F0030585420AD11C6003F175
:1026B4000B001A1D20F00700821A0AD051429950CB
:1026C40070BD3046E91A00F009F80130BBD02B4642
:1026D400ECE770BDA00000209C00002038B5064C3B
:1026E400002305460846236000F0DCF8431C02D1B1
:1026F400236803B12B6038BDCC00002010B50C4614
:10270400B1F90E1000F094F80028ABBF636DA389F3
:102714001B1823F48053ACBF6365A38110BD2DE95E
:10272400F0411D468B89DB0507460C46164605D548
:10273400B1F90E100022022300F068F8A389B4F95D
:102744000E1023F48053A381384632462B46BDE84D
:10275400F04100F017B810B50C46B1F90E1000F0B6
:1027640055F8431CA38915BF606523F4805343F4D3
:102774008053A38118BFA38110BDB1F90E1000F0DE
:1027840013B8000038B5074C054600202060084601
:1027940011461A4600F094F8431C02D1236803B191
:1027A4002B6038BDCC00002038B5064C002305460C
:1027B4000846236000F04EF8431C02D1236803B19D
:1027C4002B6038BDCC00002038B5074C00230546EB
:1027D40008461146236000F045F8431C02D12368E3
:1027E40003B12B6038BD00BFCC00002038B5064CC7
:1027F400002305460846236000F03CF8431C02D140
:10280400236803B12B6038BDCC00002038B5074CD9
:10281400054600202060084611461A4600F032F8AA
:10282400431C02D1236803B12B6038BDCC000020C7
:1028340038B5074C054600202060084611461A4664
:1028440000F028F8431C02D1236803B12B6038BD83
:10285400CC000020024B58221A604FF0FF30704722
:10286400CC000020024B58221A604FF0FF30704712
:10287400CC000020024B58221A600020704700BF91
:10288400CC000020024B58221A604FF0FF307047F2
:10289400CC000020024B58221A604FF0FF307047E2
:1028A400CC000020044A05491368002B08BF0B46DE
:1028B4001844106018467047A4000020D00000207F
:1028C400024B58221A604FF0FF307047CC000020B2
:1028D400F8B500BFF8BC08BC9E467047F8B500BF09
:0828E400F8BC08BC9E467047D9
:1028EC004572726F7220737574696C00430000003E
:1028FC001800002000000000000000000000000094
:10290C0000000000000000000000000000000000BB
:10291C0000000000000000000000000000000000AB
:10292C00000000000000000000000000000000009B
:10293C00000000000000000000000000000000008B
:10294C00000000000000000000000000000000007B
:04295C000000000077
:042960004102000828
:04296400190200084C
:102968000200040008001000200040008000000160
:1029780000020000020408100000000000290008FE
:10298800202900084029000800000000000000007D
:102998000000000000000000F82800080000000007
:1029A800000000000000000000000000000000001F
:1029B800000000000000000000000000000000000F
:1029C80000000000000000000000000000000000FF
:0C29D800000000000000000018000020BB
:0400000508001EA52C
:00000001FF
